:100000000C945D000C9485000C9485000C94850084
:100010000C9485000C9485000C9485000C9485004C
:100020000C9485000C9485000C9485000C9485003C
:100030000C9485000C9485000C9485000C9485002C
:100040000C9406060C9485000C9476060C945006CD
:100050000C9485000C9485000C9485000C9485000C
:100060000C9485000C94850000000008000201003B
:100070000003040700000000000000000000000072
:10008000250028002B0000000000240027002A0083
:10009000040404040404040402020202020203032E
:1000A0000303030301020408102040800102040836
:1000B0001020010204081020A80611241FBECFEF53
:1000C000D8E0DEBFCDBF22E0A8E6B1E001C01D92BE
:1000D000A733B207E1F711E0A0E0B1E0EAE3FDE108
:1000E00002C005900D92A836B107D9F710E0CDE512
:1000F000D0E004C02197FE010E94990CCC35D107B5
:10010000C9F70E94F2060C949B0E0C94000090E03C
:10011000FC01EC55FF4F2491FC01E057FF4F849107
:10012000882399F090E0880F991FFC01EA57FF4F50
:10013000A591B491FC01E458FF4F859194918FB73C
:10014000F894EC91E22BEC938FBF089590E0FC01C2
:10015000E859FF4F2491FC01EC55FF4F3491FC010D
:10016000E057FF4FE491EE2309F43CC0222339F11C
:10017000233091F038F42130A9F0223001F584B514
:100180008F7D12C0273091F02830A1F02430B9F4CF
:10019000809180008F7D03C0809180008F77809355
:1001A00080000DC084B58F7784BD09C08091B000F8
:1001B0008F7703C08091B0008F7D8093B000F0E016
:1001C000EE0FFF1FE458FF4FA591B4919FB7F8942D
:1001D000611104C08C913095382302C0EC913E2B04
:1001E0003C939FBF08958E3008F08E5087708064D6
:1001F00080937C0080917A00806480937A00809163
:100200007A0086FDFCCF809178002091790090E003
:10021000922B08953FB7F89480917A0190917B01D9
:10022000A0917C01B0917D0126B5A89B05C02F3F10
:1002300019F00196A11DB11D3FBFBA2FA92F982F0C
:100240008827820F911DA11DB11DBC01CD0142E087
:10025000660F771F881F991F4A95D1F708958F92CF
:100260009F92AF92BF92CF92DF92EF92FF926B017B
:100270007C010E940A014B015C01C114D104E1041C
:10028000F104F1F00E940A01DC01CB0188199909FF
:10029000AA09BB09883E9340A105B10570F321E08E
:1002A000C21AD108E108F10888EE880E83E0981E92
:1002B000A11CB11CC114D104E104F10419F7DDCF74
:1002C000FF90EF90DF90CF90BF90AF909F908F9076
:1002D0000895CF92DF92EF92FF920F931F93CF93E7
:1002E000DF936C017A018B01C0E0D0E0CE15DF0511
:1002F00081F0D8016D918D01D601ED91FC910190B5
:10030000F081E02DC6010995892B11F02196EECFE1
:100310007E01C701DF91CF911F910F91FF90EF9068
:10032000DF90CF900895FC01538D448D252F30E050
:10033000842F90E0821B930B541710F0CF960895F2
:1003400001970895FC01918D828D981761F0828D3F
:10035000DF01A80FB11D5D968C91928D9F5F9F73F9
:10036000928F90E008958FEF9FEF0895FC01918D9B
:10037000828D981731F0828DE80FF11D858D90E008
:1003800008958FEF9FEF0895FC01918D228D892FA5
:1003900090E0805C9F4F821B91098F73992708958D
:1003A0008EE791E00E94C40121E0892B09F420E04E
:1003B000822F0895FC01848DDF01A80FB11DA35A7F
:1003C000BF4F2C91848D90E001968F739927848F75
:1003D000A689B7892C93A089B1898C918370806498
:1003E0008C93938D848D981306C00288F389E02D39
:1003F00080818F7D80830895EF92FF920F931F93EA
:10040000CF93DF93EC0181E0888F9B8D8C8D9813C7
:1004100005C0E889F989808185FD26C0F62E0B8DFF
:1004200010E00F5F1F4F0F731127E02E8C8DE81225
:100430000CC00FB607FCFACFE889F989808185FFE7
:10044000F5CFCE010E94DA01F1CF8B8DFE01E80FCE
:10045000F11DE35AFF4FF0829FB7F8940B8FEA89A2
:10046000FB89808180620AC09FB7F894EE89FF897A
:100470006083E889F98980818370806480839FBF6D
:1004800081E090E0DF91CF911F910F91FF90EF906D
:100490000895CF93DF93EC01888D8823C9F0EA8912
:1004A000FB89808185FD05C0A889B9898C9186FD6D
:1004B0000FC00FB607FCF5CF808185FFF2CFA8896A
:1004C000B9898C9185FFEDCFCE010E94DA01E7CF8B
:1004D000DF91CF91089580E090E0892B29F00E9470
:1004E000D00181110C9400000895CF93DF93EC01AB
:1004F00060E08E810E94A60061E08E810E94A600CD
:1005000060E08E810E94A6008BE891E00197F1F7F0
:10051000DF91CF910895CF92DF92EF92FF920F93E8
:100520001F93CF93DF936C017C0187E0E80EF11CF1
:10053000C0E0D0E0062F10E0B8010C2E02C0759587
:1005400067950A94E2F76170F70181917F010E943B
:10055000A6002196C430D10579F7C601DF91CF916D
:100560001F910F91FF90EF90DF90CF900C94750248
:10057000CF92DF92EF92FF920F931F93CF93DF936F
:10058000EC01F62E642F8C810E94A6008D818F3F96
:1005900019F060E00E94A6008F850F2D10E084FF07
:1005A00025C06E0187E0C80ED11CE12CF12CB801EA
:1005B0000E2C02C0759567950A94E2F76170F601FA
:1005C00081916F010E94A600FFEFEF1AFF0A88E0F9
:1005D000E816F10461F7CE01DF91CF911F910F91E1
:1005E000FF90EF90DF90CF900C947502B80184E0FB
:1005F000759567958A95E1F7CE010E948B026F2D64
:10060000CE01DF91CF911F910F91FF90EF90DF907E
:10061000CF900C948B0240E0682F8BE192E00C9419
:10062000B802CF93DF93823028F090912A0298602D
:1006300090932A0280932E0210922F0280E48093DE
:10064000300280E18093310280E580933202809114
:100650001F020E948700809120028F3F11F00E94AC
:100660008700809121020E948700CBE1D2E09E01A9
:100670002B51324080912A0284FD03C084E090E037
:1006800002C088E090E021962817390724F48E8173
:100690000E948700ECCF8BE39DE00197F1F760E0CB
:1006A00080911F020E94A60060E0809121020E94BA
:1006B000A600809120028F3F19F060E00E94A60002
:1006C00080912A0284FD20C063E08BE192E00E94C9
:1006D0008B02CBE4D6E4CE010197F1F763E08BE126
:1006E00092E00E948B022197F1F763E08BE192E0A8
:1006F0000E948B0283E592E00197F1F762E08BE1C3
:1007000092E00E948B0215C080620E940B038BE472
:1007100096E40197F1F780912A0280620E940B0310
:1007200083E592E00197F1F780912A0280620E94AE
:100730000B0380912A0280620E940B0384E0809365
:100740002B028CE00E940B0381E00E940B038BE3E1
:100750009FE10197F1F782E080932C0286E0DF9120
:10076000CF910C940B03643008F063E090912E025B
:10077000691710F06FEF690FE62FF0E0E55EFD4FAF
:100780009489890F80680C940B0341E00E94B802A1
:1007900081E090E00895089580E090E00895FC01E4
:1007A000808191810C94370DCF93DF93EC01888188
:1007B0009981009711F00E94370D198218821D82CD
:1007C0001C821B821A82DF91CF91089561157105F9
:1007D00079F0FB0101900020E9F73197AF01461B4A
:1007E000570BDC01ED91FC910280F381E02D09941F
:1007F00080E090E008950E94860E0F931F93CF93A0
:10080000DF93EC0188819981009729F02A813B814F
:100810002617370788F48B016F5F7F4F0E94C00D4A
:10082000009761F0998388831B830A832C813D8123
:10083000232B11F4FC01108281E001C080E0DF91E4
:10084000CF911F910F910895EF92FF920F931F93F5
:10085000CF93DF93EC01FB0104811581E080F180EF
:10086000E114F104C9F001151105C9F08C819D81D5
:10087000080F191FB801CE010E94FD03882361F003
:10088000288139818C819D81B701820F931F0E943D
:10089000940E1D830C8303C0CE010E94D403CE01AD
:1008A000DF91CF911F910F91FF90EF900895EF92FC
:1008B000FF920F931F93CF93DF93EC017B018A018B
:1008C000BA010E94FD03811104C0CE010E94D4032D
:1008D00007C01D830C83B701888199810E94940E03
:1008E000CE01DF91CF911F910F91FF90EF9008956E
:1008F000CF93DF93EC01FB018617970761F06081CE
:1009000071816115710529F0448155810E94570458
:1009100002C00E94D403CE01DF91CF910895EF92DF
:10092000FF920F931F93CF93DF93CDB7DEB76297FC
:100930000FB6F894DEBF0FBECDBF8C01CB01F8011E
:100940001182108213821282158214824AE09E0163
:100950002F5F3F4F7901B9010E94CF09F701019044
:100960000020E9F73197AF014E195F09B701C801BF
:100970000E94570462960FB6F894DEBF0FBECDBF3B
:10098000DF91CF911F910F91FF90EF900895FC019F
:1009900011821082138212821582148261157105F0
:1009A00051F0FB0101900020E9F73197AF01461BA0
:1009B000570B0C94570408952F923F924F925F92D9
:1009C0006F927F928F929F92AF92BF92CF92DF925F
:1009D000EF92FF920F931F93CF93DF93CDB7DEB7C4
:1009E000A2970FB6F894DEBF0FBECDBF8C014A01AF
:1009F0005B01D22E9A01AB01C501B4010E94720CB9
:100A0000882319F068E271E027C024013501E894D9
:100A100077F82FEF3FEF4FE75FE7C301B2010E9486
:100A2000720C81110DC02FEF3FEF4FE75FE7C3015D
:100A3000B2010E94040A18161CF46CE271E00CC0AA
:100A40002FEF3FEF4FE75FE4C501B4010E946D0C4B
:100A5000181634F460E371E0C8010E94E603BDC0DB
:100A60002FEF3FEF4FE75FECC501B4010E94040A8E
:100A700087FDF0CF20E030E0A901C501B4010E945C
:100A8000040A87FF0FC0D801ED91FC910190F0811D
:100A9000E02D6DE2C80109951C01B7FAB094B7F8D2
:100AA000B09402C0212C312CF12C60E070E080E089
:100AB0009FE3DF1441F020E030E040E251E40E9487
:100AC000CC0BF394F6CFA50194010E94600B4B016F
:100AD0005C010E943E0C562E672E782EC92E19A25C
:100AE000262F372F482F592F7E01B1E2EB0EF11C34
:100AF000EAA24F2CCA01B9012AE030E040E050E000
:100B00000E94770C605DF70162937F01211531052A
:100B10004105510579F7BF01C8010E94E603710143
:100B2000E80EF91EDD2009F457C0652D762D872DBE
:100B30009C2D0E94090A9B01AC01C501B4010E94D1
:100B40005F0B4B015C01D801ED91FC910190F081AC
:100B5000E02D6EE2C8010995E80EF91E20E030E0B4
:100B600040E251E4C501B4010E946A0A4B015C01F4
:100B70000E943E0C9B0140E050E019A22AA0342CB8
:100B8000562E632E742EC52ECA01B9012AE030E01C
:100B900040E050E00E94770C605DF10162931F011C
:100BA000211531054105510579F7BF01C8010E94A2
:100BB000E603E80EF91E652D762D872D9C2D0E94EB
:100BC000090A9B01AC01C501B4010E945F0B4B01F6
:100BD0005C01DA94D110C2CFC701A2960FB6F89487
:100BE000DEBF0FBECDBFDF91CF911F910F91FF9060
:100BF000EF90DF90CF90BF90AF909F908F907F90BD
:100C00006F905F904F903F902F9008951F920F929A
:100C10000FB60F9211242F933F938F939F93AF930F
:100C2000BF938091760190917701A0917801B09166
:100C300079013091750123E0230F2D3720F40196BF
:100C4000A11DB11D05C026E8230F0296A11DB11DEF
:100C5000209375018093760190937701A09378019A
:100C6000B093790180917A0190917B01A0917C01F0
:100C7000B0917D010196A11DB11D80937A019093E1
:100C80007B01A0937C01B0937D01BF91AF919F91B7
:100C90008F913F912F910F900FBE0F901F9018953D
:100CA0001F920F920FB60F9211242F933F934F93E1
:100CB0005F936F937F938F939F93AF93BF93EF93C4
:100CC000FF938EE791E00E94DA01FF91EF91BF91CF
:100CD000AF919F918F917F916F915F914F913F91D4
:100CE0002F910F900FBE0F901F9018951F920F928B
:100CF0000FB60F9211242F938F939F93EF93FF932F
:100D0000E0918E01F0918F018081E0919401F0914A
:100D1000950182FD12C09081809197018F5F8F7342
:100D200020919801821751F0E0919701F0E0E2588C
:100D3000FE4F958F8093970101C08081FF91EF91C5
:100D40009F918F912F910F900FBE0F901F9018952C
:100D5000EEE7F1E01382128288EE93E0A0E0B0E0CB
:100D600084839583A683B7838EE091E0918380830B
:100D700085EC90E09587848784EC90E09787868760
:100D800080EC90E0918B808B81EC90E0938B828B58
:100D900082EC90E0958B848B86EC90E0978B868B31
:100DA000118E128E138E148EEBE1F2E013821282FA
:100DB00080E291E0918380838CE084838FEF858350
:100DC0008BE0868385E0878384E0808783E081876A
:100DD00082E082871386148615861686178681E040
:100DE0000C941103CF93DF93CDB7DEB762970FB6A4
:100DF000F894DEBF0FBECDBF789484B5826084BD09
:100E000084B5816084BD85B5826085BD85B581600E
:100E100085BD80916E00816080936E00109281008C
:100E20008091810082608093810080918100816047
:100E30008093810080918000816080938000809108
:100E4000B10084608093B1008091B0008160809394
:100E5000B00080917A00846080937A0080917A005B
:100E6000826080937A0080917A00816080937A001A
:100E700080917A00806880937A001092C10089E0A6
:100E80000E948700E0918E01F0918F0182E08083C3
:100E9000E0918A01F0918B011082E0918C01F09138
:100EA0008D018FEC808310929601E0919201F09178
:100EB000930186E08083E0919001F091910180811F
:100EC00080618083E0919001F09191018081886040
:100ED0008083E0919001F09191018081806880830E
:100EE000E0919001F091910180818F7D808382E07B
:100EF0000E94110364E371E08BE192E00E94E6033B
:100F000068EE73E080E090E00E942F0180E6C82E3A
:100F10008AEED82EE12CF12C9BE4292E312C28EEE0
:100F2000822E23E0922EA12CB12C2FB7F894809121
:100F3000760190917701A0917801B09179012FBF4E
:100F40008093000190930101A0930201B0930301EB
:100F5000409171015091720160917301709174011F
:100F6000841B950BA60BB70B80322AEA920724E468
:100F7000A207B105C0F061E089E00E94A6002FB78A
:100F8000F8948091760190917701A0917801B091C9
:100F900079012FBF8093710190937201A093730127
:100FA000B093740109C080369A4EA105B10568F46A
:100FB00061E089E00E94A60081E0809370010AEF61
:100FC00010E0412C512C320107C060E089E00E9402
:100FD000A60010927001F3CF80E10E94F300BC01E3
:100FE000990F880B990B0E940B0A9B01AC01C3015E
:100FF000B2010E94600B2B013C0161E070E080E0D7
:1010000090E00E942F010150110931F720E030E0FB
:101010004AE753E4C301B2010E94CC0B2B013C010F
:1010200022E0AB01BC018EE791E00E94DC046BE39F
:1010300071E08EE791E00E94E60320E030E040E2BC
:1010400051E4C301B2010E946A0A20E030E040EAA4
:1010500050E40E946A0A20E030E040E85AE30E942F
:101060006A0A60936C0170936D0180936E01909396
:101070006F010AEF10E0412C512C32016DE371E059
:10108000CE010D960E94C70461E085E00E94B30383
:101090006EE371E08BE192E00E94E60380917001C3
:1010A000882381F12FB7F894809176019091770190
:1010B000A0917801B09179012FBF209171013091F9
:1010C00072014091730150917401BC01CD01621B0A
:1010D000730B840B950BA50194010E94770C6CE3B4
:1010E00070E0621B730BCE0101966A3071052CF023
:1010F0000E948F0463E471E030C00E948F0469E4B1
:1011000071E02BC08091000190910101A09102013A
:10111000B0910301209171013091720140917301EE
:1011200050917401BC01CD01621B730B840B950BB4
:10113000A70196010E94770CB101621B730BCE01CF
:1011400001966A3071052CF00E948F0460E571E011
:1011500004C00E948F0466E571E0CE0107960E94EC
:10116000C704BE016F5F7F4FCE0107960E94240423
:10117000BC01CE010D960E947804CE0107960E9414
:10118000CF03CE0101960E94CF0349895A896D850C
:101190007E858BE192E00E9469018EE00E94F3005F
:1011A000BC01990F880B990B0E940B0A9B01AC01A3
:1011B000C301B2010E94600B2B013C0161E070E0B1
:1011C00080E090E00E942F01CE010D960E94CF0397
:1011D0000150110909F052CF20E030E04AE753E412
:1011E000C301B2010E94CC0B28EB3EE145E85FE36E
:1011F0000E946A0A20E030E040EC51E40E945F0B5C
:101200002B013C01609368017093690180936A012E
:1012100090936B0181E00E940B038BE39FE10197A8
:10122000F1F722E0B301A2018BE192E00E94DC041D
:1012300061E080E00E94B3036DE571E08BE192E034
:101240000E94E60360E088E00E94B30362E671E07A
:101250008BE192E00E94E60340916C0150916D0198
:1012600060916E0170916F0122E08BE192E00E942B
:10127000DC046DE371E0CE010D960E94C70461E0CD
:1012800085E00E94B3036EE371E08BE192E00E947F
:10129000E60380917001882381F12FB7F894809143
:1012A000760190917701A0917801B09179012FBFDB
:1012B00000917101109172012091730130917401BC
:1012C000BC01CD01601B710B820B930BA501940136
:1012D0000E94770C6CE370E0621B730BCE010196E9
:1012E0006A3071052CF00E948F0463E471E030C015
:1012F0000E948F0469E471E02BC0809100019091FD
:101300000101A0910201B0910301009171011091BE
:1013100072012091730130917401BC01CD01601BF9
:10132000710B820B930BA70196010E94770CB10100
:10133000621B730BCE0101966A3071052CF00E947E
:101340008F0460E571E004C00E948F0466E571E0DF
:10135000CE0107960E94C704BE016F5F7F4FCE018A
:1013600007960E942404BC01CE010D960E947804C9
:10137000CE0107960E94CF03CE0101960E94CF03B3
:1013800049895A896D857E858BE192E00E946901C9
:10139000CE010D960E94CF030E946B02C6CDBB27E3
:1013A0004A3031F4992322F4BDE2909581959F4F04
:1013B0000C94DB09BB27FB015527AA27880F991F2F
:1013C000AA1FA41710F0A41B83955051B9F7A05D74
:1013D000AA3308F0A95DA193009779F7B111B193F1
:1013E0001192CB010C94F409DC01FC01672F71917F
:1013F0007723E1F7329704C07C916D9370836291FB
:10140000AE17BF07C8F308950E94460A08F481E0AA
:101410000895E89409C097FB3EF4909580957095E7
:1014200061957F4F8F4F9F4F9923A9F0F92F96E930
:10143000BB279395F695879577956795B795F111A5
:10144000F8CFFAF4BB0F11F460FF1BC06F5F7F4F42
:101450008F4F9F4F16C0882311F096E911C0772354
:1014600021F09EE8872F762F05C0662371F096E85D
:10147000862F70E060E02AF09A95660F771F881F2C
:10148000DAF7880F9695879597F90895990F0008D0
:10149000550FAA0BE0E8FEEF16161706E807F90746
:1014A000C0F012161306E407F50798F0621B730BE1
:1014B000840B950B39F40A2661F0232B242B252B62
:1014C00021F408950A2609F4A140A6958FEF811D05
:1014D000811D08950E947D0A0C94EE0A0E94E00A84
:1014E00038F00E94E70A20F0952311F00C94D70AF7
:1014F0000C94DD0A11240C94220B0E94FF0A70F355
:10150000959FC1F3950F50E0551F629FF001729FA8
:10151000BB27F00DB11D639FAA27F00DB11DAA1FB7
:10152000649F6627B00DA11D661F829F2227B00D04
:10153000A11D621F739FB00DA11D621F839FA00D8F
:10154000611D221F749F3327A00D611D231F849FDF
:10155000600D211D822F762F6A2F11249F57504036
:101560009AF0F1F088234AF0EE0FFF1FBB1F661FB1
:10157000771F881F91505040A9F79E3F510580F07A
:101580000C94D70A0C94220B5F3FE4F3983ED4F3FB
:10159000869577956795B795F795E7959F5FC1F71E
:1015A000FE2B880F911D9695879597F9089597F9C9
:1015B0009F6780E870E060E008959FEF80EC0895F9
:1015C00000240A9416161706180609060895002422
:1015D0000A9412161306140605060895092E03949C
:1015E000000C11F4882352F0BB0F40F4BF2B11F410
:1015F00060FF04C06F5F7F4F8F4F9F4F089557FD6F
:101600009058440F551F59F05F3F71F04795880F70
:1016100097FB991F61F09F3F79F087950895121607
:1016200013061406551FF2CF4695F1DF08C01616B3
:1016300017061806991FF1CF869571056105089464
:101640000895E894BB2766277727CB0197F908957B
:101650002F923F924F925F926F927F928F929F92C2
:10166000AF92BF92CF92DF92EF92FF920F931F93B0
:10167000CF93DF93CDB7DEB7CA1BDB0B0FB6F89461
:10168000DEBF0FBECDBF09942A88398848885F84A1
:101690006E847D848C849B84AA84B984C884DF8012
:1016A000EE80FD800C811B81AA81B981CE0FD11DF6
:1016B0000FB6F894DEBF0FBECDBFED0108955058B0
:1016C000BB27AA270E94770B0C94EE0A0E94E00A1F
:1016D00038F00E94E70A20F039F49F3F19F426F40D
:1016E0000C94DD0A0EF4E095E7FB0C94D70AE92F81
:1016F0000E94FF0A58F3BA17620773078407950719
:1017000020F079F4A6F50C94210B0EF4E0950B2E45
:10171000BA2FA02D0B01B90190010C01CA01A00143
:101720001124FF27591B99F0593F50F4503E68F19E
:101730001A16F040A22F232F342F4427585FF3CFDF
:10174000469537952795A795F0405395C9F77EF4B0
:101750001F16BA0B620B730B840BBAF09150A1F0F9
:10176000FF0FBB1F661F771F881FC2F70EC0BA0F7F
:10177000621F731F841F48F4879577956795B79507
:10178000F7959E3F08F0B0CF9395880F08F0992702
:10179000EE0F9795879508950E94E00B0C94EE0A42
:1017A0000E94E70A58F00E94E00A40F029F45F3FE7
:1017B00029F00C94D70A51110C94220B0C94DD0AD9
:1017C0000E94FF0A68F39923B1F3552391F3951B07
:1017D000550BBB27AA2762177307840738F09F5F52
:1017E0005F4F220F331F441FAA1FA9F335D00E2EBF
:1017F0003AF0E0E832D091505040E695001CCAF72C
:101800002BD0FE2F29D0660F771F881FBB1F2617EE
:1018100037074807AB07B0E809F0BB0B802DBF01C5
:10182000FF2793585F4F3AF09E3F510578F00C9494
:10183000D70A0C94220B5F3FE4F3983ED4F38695CD
:1018400077956795B795F7959F5FC9F7880F911DB5
:101850009695879597F90895E1E0660F771F881FA1
:10186000BB1F621773078407BA0720F0621B730B54
:10187000840BBA0BEE1F88F7E09508950E94070BC2
:1018800088F09F5798F0B92F9927B751B0F0E1F041
:10189000660F771F881F991F1AF0BA95C9F714C0F1
:1018A000B13091F00E94210BB1E008950C94210B0E
:1018B000672F782F8827B85F39F0B93FCCF386952A
:1018C00077956795B395D9F73EF490958095709587
:1018D00061957F4F8F4F9F4F08950E94460A08F4ED
:1018E0008FEF08950E94460A880B990B0895A1E294
:1018F0001A2EAA1BBB1BFD010DC0AA1FBB1FEE1F8A
:10190000FF1FA217B307E407F50720F0A21BB30BD4
:10191000E40BF50B661F771F881F991F1A9469F750
:1019200060957095809590959B01AC01BD01CF01AC
:101930000895EE0FFF1F0590F491E02D09940F9389
:101940001F93CF93DF938230910510F482E090E0F3
:10195000E0913502F091360220E030E0A0E0B0E006
:10196000309719F14081518102811381481759073D
:10197000C8F08417950769F4109731F012960C930C
:10198000129713961C9327C00093350210933602CA
:1019900022C02115310519F04217530718F49A0196
:1019A000BD01EF01DF01F801DBCF21153105F9F0B1
:1019B000281B390B2430310580F48A819B81611505
:1019C000710521F0FB019383828304C0909336025A
:1019D00080933502FE01329644C0FE01E20FF31FF0
:1019E0008193919322503109398328833AC0209101
:1019F000330230913402232B41F4209106013091BF
:101A00000701309334022093330220910401309176
:101A100005012115310541F42DB73EB7409108016C
:101A200050910901241B350BE0913302F0913402EF
:101A3000E217F307A0F42E1B3F0B2817390778F0A5
:101A4000AC014E5F5F4F2417350748F04E0F5F1F04
:101A500050933402409333028193919302C0E0E0AB
:101A6000F0E0CF01DF91CF911F910F910895CF93B7
:101A7000DF93009709F481C0FC0132971382128230
:101A8000A0913502B0913602109781F42081318106
:101A9000820F931F209133023091340228173907A7
:101AA00051F5F0933402E093330267C0ED0120E07A
:101AB00030E0CE17DF0740F44A815B819E0141157B
:101AC0005105F1F0EA01F5CFD383C2834081518102
:101AD000840F951FC817D90759F488819981840FFD
:101AE000951F0296918380838A819B819383828351
:101AF0002115310529F4F0933602E09335023DC0FB
:101B0000E901FB83EA8349915991C40FD51FEC1772
:101B1000FD0761F480819181840F951F0296E90190
:101B200099838883828193819B838A83E0E0F0E0BC
:101B300012968D919C911397009719F0FD01DC018D
:101B4000F7CF8D919C9111979D012E5F3F4F820F92
:101B5000931F20913302309134022817390769F41A
:101B6000309729F4109236021092350202C0138287
:101B70001282B0933402A0933302DF91CF91089583
:101B8000A0E0B0E0E6ECFDE00C942C0BEC0100973B
:101B900021F4CB010E949F0CB4C0FC01E60FF71F9B
:101BA0009C0122503109E217F30708F4A8C0D901BB
:101BB0000D911C91119706171707B0F0053011050C
:101BC00008F49BC0C80104978617970708F495C0CE
:101BD00002501109061B170B019311936D937C930F
:101BE000CF010E94370D89C05B01A01AB10A4C01D8
:101BF000800E911EA0913502B0913602612C712C9D
:101C0000E12CF12C109709F446C08D919C9111970D
:101C1000A815B905B1F56C0142E0C40ED11CCA1477
:101C2000DB0478F14C018A189B08640142E0C40E81
:101C3000D11C1296BC9012971396AC91B5E0CB16BE
:101C4000D10440F0B282A38391828082D9016D9346
:101C50007C9309C00E5F1F4F800F911FF901918384
:101C60008083EB2DFA2FE114F10431F0D7011396A4
:101C7000FC93EE93129741C0F0933602E093350245
:101C80003CC06816790608F43C017D0112960D905F
:101C9000BC91A02DB7CF8091330290913402881669
:101CA0009906E1F466167706C8F4809104019091D4
:101CB0000501009741F48DB79EB7409108015091FE
:101CC0000901841B950BE817F907C8F4F093340257
:101CD000E0933302F901718360830FC0CB010E944E
:101CE0009F0C7C01009759F0A801BE010E948B0E49
:101CF000CE010E94370DC70104C0CE0102C080E0B2
:101D000090E0CDB7DEB7EEE00C94480B81E090E0B8
:101D1000F8940C949B0EFB01DC0102C001900D9223
:101D200041505040D8F70895FB01DC0101900D921D
:0A1D30000020E1F70895F894FFCFBA
:101D3A0020AA440000003702800000000000FC01D5
:101D4A00690193014902C401A201B6010000000021
:101D5A00C5036901CC03CB036E616E00696E660030
:101D6A006F766600424547494E21000D0A004C4EE7
:101D7A00323A0066696C6C200066696C6C2030002F
:101D8A0077616974200077616974203000746F721A
:081D9A007200504F57200000B9
:00000001FF
