:100000000C945D000C9485000C9485000C94850084
:100010000C9485000C9485000C9485000C9485004C
:100020000C9485000C9485000C9485000C9485003C
:100030000C9485000C9485000C9485000C9485002C
:100040000C9435040C9485000C94A5040C947F0446
:100050000C9485000C9485000C9485000C9485000C
:100060000C9485000C94850000000008000201003B
:100070000003040700000000000000000000000072
:10008000250028002B0000000000240027002A0083
:10009000040404040404040402020202020203032E
:1000A0000303030301020408102040800102040836
:1000B0001020010204081020D70411241FBECFEF26
:1000C000D8E0DEBFCDBF11E0A0E0B1E0E0ECF3E1AD
:1000D00002C005900D92A634B107D9F722E0A6E43C
:1000E000B1E001C01D92A830B207E1F710E0CDE504
:1000F000D0E004C02197FE010E94D309CC35D1077E
:10010000C9F70E9421050C94DE090C94000090E0D0
:10011000FC01EC55FF4F2491FC01E057FF4F849107
:10012000882399F090E0880F991FFC01EA57FF4F50
:10013000A591B491FC01E458FF4F859194918FB73C
:10014000F894EC91E22BEC938FBF089590E0FC01C2
:10015000E859FF4F2491FC01EC55FF4F3491FC010D
:10016000E057FF4FE491EE2309F43CC0222339F11C
:10017000233091F038F42130A9F0223001F584B514
:100180008F7D12C0273091F02830A1F02430B9F4CF
:10019000809180008F7D03C0809180008F77809355
:1001A00080000DC084B58F7784BD09C08091B000F8
:1001B0008F7703C08091B0008F7D8093B000F0E016
:1001C000EE0FFF1FE458FF4FA591B4919FB7F8942D
:1001D000611104C08C913095382302C0EC913E2B04
:1001E0003C939FBF08953FB7F89480914F01909141
:1001F0005001A0915101B091520126B5A89B05C0B4
:100200002F3F19F00196A11DB11D3FBFBA2FA92F95
:10021000982F8827820F911DA11DB11DBC01CD0112
:1002200042E0660F771F881F991F4A95D1F70895FE
:100230008F929F92AF92BF92CF92DF92EF92FF92F6
:100240006B017C010E94F3004B015C01C114D104DD
:10025000E104F104F1F00E94F300DC01CB01881904
:100260009909AA09BB09883E9340A105B10570F31D
:1002700021E0C21AD108E108F10888EE880E83E077
:10028000981EA11CB11CC114D104E104F10419F79A
:10029000DDCFFF90EF90DF90CF90BF90AF909F9019
:1002A0008F900895CF92DF92EF92FF920F931F935A
:1002B000CF93DF936C017A018B01C0E0D0E0CE15C3
:1002C000DF0581F0D8016D918D01D601ED91FC9192
:1002D0000190F081E02DC6010995892B11F021963E
:1002E000EECF7E01C701DF91CF911F910F91FF905B
:1002F000EF90DF90CF900895FC01538D448D252F12
:1003000030E0842F90E0821B930B541710F0CF96AF
:10031000089501970895FC01918D828D981761F0E1
:10032000828DDF01A80FB11D5D968C91928D9F5F2C
:100330009F73928F90E008958FEF9FEF0895FC01D7
:10034000918D828D981731F0828DE80FF11D858D8A
:1003500090E008958FEF9FEF0895FC01918D228D1D
:10036000892F90E0805C9F4F821B91098F739927A2
:10037000089583E591E00E94AD0121E0892B09F405
:1003800020E0822F0895FC01848DDF01A80FB11DAC
:10039000A35ABF4F2C91848D90E001968F739927BB
:1003A000848FA689B7892C93A089B1898C91837099
:1003B00080648C93938D848D981306C00288F38992
:1003C000E02D80818F7D80830895EF92FF920F93BF
:1003D0001F93CF93DF93EC0181E0888F9B8D8C8DF1
:1003E000981305C0E889F989808185FD26C0F62E1D
:1003F0000B8D10E00F5F1F4F0F731127E02E8C8DB8
:10040000E8120CC00FB607FCFACFE889F9898081A1
:1004100085FFF5CFCE010E94C301F1CF8B8DFE0188
:10042000E80FF11DE35AFF4FF0829FB7F8940B8F4E
:10043000EA89FB89808180620AC09FB7F894EE89BF
:10044000FF896083E889F989808183708064808373
:100450009FBF81E090E0DF91CF911F910F91FF90BE
:10046000EF900895CF93DF93EC01888D8823C9F036
:10047000EA89FB89808185FD05C0A889B9898C91AD
:1004800086FD0FC00FB607FCF5CF808185FFF2CF48
:10049000A889B9898C9185FFEDCFCE010E94C30157
:1004A000E7CFDF91CF91089580E090E0892B29F08C
:1004B0000E94B90181110C9400000895CF93DF933D
:1004C000EC0160E08E810E94A60061E08E810E94B6
:1004D000A60060E08E810E94A6008BE891E0019763
:1004E000F1F7DF91CF910895CF92DF92EF92FF92D3
:1004F0000F931F93CF93DF936C017C0187E0E80E8D
:10050000F11CC0E0D0E0062F10E0B8010C2E02C0B4
:10051000759567950A94E2F76170F70181917F0103
:100520000E94A6002196C430D10579F7C601DF915B
:10053000CF911F910F91FF90EF90DF90CF900C948F
:100540005E02CF92DF92EF92FF920F931F93CF93B1
:10055000DF93EC01F62E642F8C810E94A6008D8122
:100560008F3F19F060E00E94A6008F850F2D10E0EC
:1005700084FF25C06E0187E0C80ED11CE12CF12C50
:10058000B8010E2C02C0759567950A94E2F7617068
:10059000F60181916F010E94A600FFEFEF1AFF0A9A
:1005A00088E0E816F10461F7CE01DF91CF911F9149
:1005B0000F91FF90EF90DF90CF900C945E02B80106
:1005C00084E0759567958A95E1F7CE010E947402E3
:1005D0006F2DCE01DF91CF911F910F91FF90EF9082
:1005E000DF90CF900C94740240E0682F80EF91E090
:1005F0000C94A10281E00E94F4028BE39FE1019739
:10060000F1F70895CF93DF93823028F09091FF01A6
:1006100098609093FF01809303021092040280E49B
:100620008093050280E18093060280E580930702B3
:100630008091F4010E9487008091F5018F3F11F0B5
:100640000E9487008091F6010E948700C0EFD1E0F0
:100650009E01205F31408091FF0184FD03C084E052
:1006600090E002C088E090E021962817390724F432
:100670008E810E948700ECCF8BE39DE00197F1F71C
:1006800060E08091F4010E94A60060E08091F60194
:100690000E94A6008091F5018F3F19F060E00E9452
:1006A000A6008091FF0184FD20C063E080EF91E00F
:1006B0000E947402CBE4D6E4CE010197F1F763E027
:1006C00080EF91E00E9474022197F1F763E080EFE0
:1006D00091E00E94740283E592E00197F1F762E0F5
:1006E00080EF91E00E94740215C080620E94F402C3
:1006F0008BE496E40197F1F78091FF0180620E94FC
:10070000F40283E592E00197F1F78091FF018062A6
:100710000E94F4028091FF0180620E94F40284E052
:10072000809300028CE00E94F4020E94FA0282E0B0
:100730008093010286E0DF91CF910C94F402643043
:1007400008F063E090910302691710F06FEF690FF2
:10075000E62FF0E0E051FE4F9489890F80680C94F9
:10076000F40241E00E94A10281E090E00895089522
:1007700080E090E00895009769F0FC01019000206E
:10078000E9F73197AF01481B590BBC0180EF91E0AD
:100790000C94520180E090E008958F929F92AF9266
:1007A000BF920F931F93CF93DF93CDB7DEB7A1977F
:1007B0000FB6F894DEBF0FBECDBF19A2423008F4C9
:1007C0004AE08E010F5D1F4F842E912CA12CB12C7D
:1007D000A50194010E94B109E62FB901CA01015097
:1007E0001109EA3014F4E05D01C0E95CD801EC9332
:1007F000232B242B252B61F7C8010E94BB03A19654
:100800000FB6F894DEBF0FBECDBFDF91CF911F9121
:100810000F91BF90AF909F908F900895CF92DF92ED
:10082000EF92FF9297FF18C06B017C0141E06DE2EF
:1008300080EF91E00E94A10266277727CB016C1917
:100840007D098E099F094AE00E94CD030196FF9021
:10085000EF90DF90CF9008954AE0FF90EF90DF9007
:10086000CF900C94CD030E94D9091F920F920FB61E
:100870000F9211242F933F938F939F93AF93BF9326
:1008800080914B0190914C01A0914D01B0914E018E
:1008900030914A0123E0230F2D3720F40196A11D4A
:1008A000B11D05C026E8230F0296A11DB11D20939E
:1008B0004A0180934B0190934C01A0934D01B0935A
:1008C0004E0180914F0190915001A0915101B09142
:1008D00052010196A11DB11D80934F0190935001CB
:1008E000A0935101B0935201BF91AF919F918F910D
:1008F0003F912F910F900FBE0F901F9018951F9250
:100900000F920FB60F9211242F933F934F935F9343
:100910006F937F938F939F93AF93BF93EF93FF93C7
:1009200083E591E00E94C301FF91EF91BF91AF91E8
:100930009F918F917F916F915F914F913F912F91F7
:100940000F900FBE0F901F9018951F920F920FB629
:100950000F9211242F938F939F93EF93FF93E09126
:100960006301F09164018081E0916901F0916A0175
:1009700082FD12C0908180916C018F5F8F732091F6
:100980006D01821751F0E0916C01F0E0ED5AFE4FDD
:10099000958F80936C0101C08081FF91EF919F91B1
:1009A0008F912F910F900FBE0F901F901895E3E538
:1009B000F1E01382128288EE93E0A0E0B0E084833D
:1009C0009583A683B78388E091E09183808385EC4B
:1009D00090E09587848784EC90E09787868780EC09
:1009E00090E0918B808B81EC90E0938B828B82ECFA
:1009F00090E0958B848B86EC90E0978B868B118EA4
:100A0000128E138E148EE0EFF1E0138212828AE1CF
:100A100091E0918380838CE084838FEF85838BE0EA
:100A2000868385E0878384E0808783E0818782E016
:100A300082871386148615861686178681E00C94A5
:100A40000203789484B5826084BD84B5816084BDDE
:100A500085B5826085BD85B5816085BD80916E005C
:100A6000816080936E00109281008091810082608D
:100A700080938100809181008160809381008091CA
:100A800080008160809380008091B10084608093B9
:100A9000B1008091B00081608093B00080917A00B5
:100AA000846080937A0080917A00826080937A00DB
:100AB00080917A00816080937A0080917A008068CA
:100AC00080937A001092C10089E00E948700E09133
:100AD0006301F091640182E08083E0915F01F09115
:100AE00060011082E0916101F09162018FEC8083DE
:100AF00010926B01E0916701F091680186E08083BC
:100B0000E0916501F0916601808180618083E091D0
:100B10006501F0916601808188608083E0916501C4
:100B2000F0916601808180688083E0916501F09199
:100B3000660180818F7D808382E00E9402030CE346
:100B400010E08BE4282E312C80910001909101015E
:100B5000A0910201B09103014091460150914701DB
:100B60006091480170914901841B950BA60BB70B4E
:100B700080329A4AA444B10508F476C00E94FA0271
:100B800082E291E00E94BB0361E089E00E94A6003E
:100B90002FB7F89480914B0190914C01A0914D0199
:100BA000B0914E012FBF8093460190934701A093CF
:100BB0004801B09349012FB7F89480914B0190916F
:100BC0004C01A0914D01B0914E012FBF40914601C3
:100BD000509147016091480170914901841B950B28
:100BE000A60BB70B80369A4EA105B10508F040C0A0
:100BF00061E080E00E949F032FB7F89480914B0141
:100C000090914C01A0914D01B0914E012FBFC09029
:100C10004601D0904701E0904801F0904901BC01A5
:100C2000CD016C197D098E099F0928EE33E040E063
:100C300050E00E94B109C801821B930B6C01092E80
:100C4000000CEE08FF080A9724F483E391E00E9469
:100C5000BB03C701B6010E940E0464E670E080E0A9
:100C600090E00E941801A7CF60E089E00E94A600F2
:100C70002FB7F89480914B0190914C01A0914D01B8
:100C8000B0914E012FBF8093000190930101A0937A
:100C90000201B0930301C2E3D0E0C12CD12C760154
:100CA00080E480937C0080917A00806480937A0055
:100CB00080917A0086FDFCCF609178008091790068
:100CC00070E0782B072E000C880B990B0E948A0885
:100CD0009B01AC01C701B6010E9476076B017C0144
:100CE00065E070E080E090E00E9418012197C1F675
:100CF00020E030E048E452E4C701B6010E94E70773
:100D000028EB3EE145E85FE30E943F0920E030E048
:100D100040EC51E40E9475076B017C014B015C01C2
:100D20000E94FA0260E080E00E949F03A701960102
:100D3000C701B6010E94AC09882319F085E391E050
:100D40001AC026013701E89477F82FEF3FEF4FE7FD
:100D50005FE7C301B2010E94AC0981110FC02FEF00
:100D60003FEF4FE75FE7C301B2010E94E2071816A9
:100D70002CF489E391E00E94BB037AC02FEF3FEF90
:100D80004FE75FE4C701B6010E943A0918161CF448
:100D90008DE391E0F0CF2FEF3FEF4FE75FECC7011E
:100DA000B6010E94E20787FDF3CF20E030E0A90101
:100DB000C701B6010E94E20787FF0CC041E06DE267
:100DC00080EF91E00E94A10246015701B7FAB0946A
:100DD000B7F8B0942AE037ED43EA5BE3C501B4010C
:100DE0000E9476074B015C010E9459086B017C014F
:100DF0000E9488089B01AC01C501B4010E947507DF
:100E00004B015C014AE0C701B6010E94CD0341E0FD
:100E10006EE280EF91E00E94A10220E030E040E22B
:100E200051E4C501B4010E943F094B015C010E94DD
:100E300059086B01E12CF12C4AE0C701B6010E9470
:100E4000CD03C701B6010E9488089B01AC01C50112
:100E5000B4010E94750720E030E040E251E40E94B6
:100E60003F090E94590880E090E04AE00E94CD03CB
:100E700061E080E00E949F0381E491E00E94BB0357
:100E80008091000190910101A0910201B0910301B4
:100E9000C0904601D0904701E0904801F090490190
:100EA000BC01CD016C197D098E099F0920E63AEE3F
:100EB00040E050E00E94B109E101C21BD30B61E0A8
:100EC0008EE00E949F036E010D2E000CEE08FF08BD
:100ED0002A9724F483E391E00E94BB03C701B60183
:100EE0000E940E040E9454022FCE5058BB27AA27FE
:100EF0000E948D070C9400090E94F20838F00E94AD
:100F0000F90820F039F49F3F19F426F40C94EF0807
:100F10000EF4E095E7FB0C94E908E92F0E94110913
:100F200058F3BA17620773078407950720F079F41E
:100F3000A6F50C9433090EF4E0950B2EBA2FA02DD4
:100F40000B01B90190010C01CA01A0011124FF2776
:100F5000591B99F0593F50F4503E68F11A16F04071
:100F6000A22F232F342F4427585FF3CF4695379570
:100F70002795A795F0405395C9F77EF41F16BA0B35
:100F8000620B730B840BBAF09150A1F0FF0FBB1FE3
:100F9000661F771F881FC2F70EC0BA0F621F731F2C
:100FA000841F48F4879577956795B795F7959E3F89
:100FB00008F0B0CF9395880F08F09927EE0F97951A
:100FC000879508950E94C50808F481E008950E945D
:100FD000FB070C9400090E94F90858F00E94F208DF
:100FE00040F029F45F3F29F00C94E90851110C946A
:100FF00034090C94EF080E94110968F39923B1F3A6
:10100000552391F3951B550BBB27AA27621773072E
:10101000840738F09F5F5F4F220F331F441FAA1FC2
:10102000A9F335D00E2E3AF0E0E832D0915050407E
:10103000E695001CCAF72BD0FE2F29D0660F771F2C
:10104000881FBB1F261737074807AB07B0E809F012
:10105000BB0B802DBF01FF2793585F4F3AF09E3F97
:10106000510578F00C94E9080C9434095F3FE4F3DF
:10107000983ED4F3869577956795B795F7959F5FDA
:10108000C9F7880F911D9695879597F90895E1E026
:10109000660F771F881FBB1F621773078407BA0785
:1010A00020F0621B730B840BBA0BEE1F88F7E095E0
:1010B00008950E94190988F09F5798F0B92F992731
:1010C000B751B0F0E1F0660F771F881F991F1AF033
:1010D000BA95C9F714C0B13091F00E943309B1E05C
:1010E00008950C943309672F782F8827B85F39F05B
:1010F000B93FCCF3869577956795B395D9F73EF4CC
:1011000090958095709561957F4F8F4F9F4F089573
:10111000E89409C097FB3EF4909580957095619591
:101120007F4F8F4F9F4F9923A9F0F92F96E9BB2747
:101130009395F695879577956795B795F111F8CFC3
:10114000FAF4BB0F11F460FF1BC06F5F7F4F8F4F2E
:101150009F4F16C0882311F096E911C0772321F024
:101160009EE8872F762F05C0662371F096E8862FBC
:1011700070E060E02AF09A95660F771F881FDAF713
:10118000880F9695879597F90895990F0008550F40
:10119000AA0BE0E8FEEF16161706E807F907C0F0FD
:1011A00012161306E407F50798F0621B730B840B05
:1011B000950B39F40A2661F0232B242B252B21F4DF
:1011C00008950A2609F4A140A6958FEF811D811D7F
:1011D000089597F99F6780E870E060E008959FEFB9
:1011E00080EC089500240A941616170618060906BE
:1011F000089500240A94121613061406050608958D
:10120000092E0394000C11F4882352F0BB0F40F414
:10121000BF2B11F460FF04C06F5F7F4F8F4F9F4F54
:10122000089557FD9058440F551F59F05F3F71F0D6
:101230004795880F97FB991F61F09F3F79F087953D
:101240000895121613061406551FF2CF4695F1DFC6
:1012500008C0161617061806991FF1CF8695710556
:10126000610508940895E894BB2766277727CB018A
:1012700097F908950E94C50808F48FEF08950E9419
:1012800052090C9400090E94F20838F00E94F908F3
:1012900020F0952311F00C94E9080C94EF08112428
:1012A0000C9434090E94110970F3959FC1F3950FB6
:1012B00050E0551F629FF001729FBB27F00DB11DDA
:1012C000639FAA27F00DB11DAA1F649F6627B00D6A
:1012D000A11D661F829F2227B00DA11D621F739F53
:1012E000B00DA11D621F839FA00D611D221F749F61
:1012F0003327A00D611D231F849F600D211D822FA8
:10130000762F6A2F11249F5750409AF0F1F08823CE
:101310004AF0EE0FFF1FBB1F661F771F881F9150FB
:101320005040A9F79E3F510580F00C94E9080C94B9
:1013300034095F3FE4F3983ED4F38695779567953B
:10134000B795F795E7959F5FC1F7FE2B880F911D25
:101350009695879597F908950E94C508880B990B73
:101360000895A1E21A2EAA1BBB1BFD010DC0AA1FE6
:10137000BB1FEE1FFF1FA217B307E407F50720F0FE
:10138000A21BB30BE40BF50B661F771F881F991F79
:101390001A9469F760957095809590959B01AC01C2
:1013A000BD01CF010895EE0FFF1F0590F491E02DD0
:1013B000099481E090E0F8940C94DE09F894FFCF52
:1013C00020AA440000000000E50152017C01320225
:1013D000AD018B019F0100000000B1035201B80371
:1013E000B70346494C4C494E47204E4954524F474B
:1013F000454E0030006E616E00696E66006F766665
:0614000000746F7272001F
:00000001FF
